:1000000014C01BC01AC019C018C017C016C015C034
:1000100014C013C012C011C010C00FC00EC00DC05C
:100020000CC00BC00AC009C008C011241FBECFE518
:10003000D1E0DEBFCDBF02D06EC0E2CFFF920F9302
:100040001F938FEF87BB81BB8ABBA0E5F8E591E0EA
:10005000ECE583E077E06FE05EE54FE1BFE52FE39D
:10006000F22EA2BB18BA0FE31DE023E001501040AE
:100070002040E1F700C00000F2BB98BB0FE31DE099
:1000800023E0015010402040E1F700C00000E2BB37
:1000900088BB0FE31DE023E0015010402040E1F752
:1000A00000C000009BBB78BB0FE31DE023E00150C4
:1000B00010402040E1F700C000008BBB68BB0FE39D
:1000C0001DE023E0015010402040E1F700C0000097
:1000D00052BB48BB0FE31DE023E00150104020401D
:1000E000E1F700C00000B2BBF8BA0FE31DE023E067
:1000F000015010402040E1F700C0000012BA18BAC9
:100100001BBA0FE31DE023E0015010402040E1F74F
:0A01100000C00000A6CFF894FFCF56
:00000001FF
